:020000040000FA
:060000000A128A110C280F
:10000800FE00030EF2000A08F3000A128A11B52F47
:100018000A128A110F2883135830FD000730FE009A
:100028007230FF00413084000A128A11CD270A126B
:100038008A11D801D901DA01DB01F801F90183013C
:100048000A128A113928FF0000308A007F088207C7
:100058002C280A128A11A32E0A128A11F72F0A12C3
:100068008A11622E0A128A11312A83120313BA01E5
:100078000A128A1162260A128A110A128A11EC27B8
:100088000A128A11CE30F400FF30F5009630F600DF
:100098000030F7000A128A11DC270A128A11542844
:1000A8000A128A11B8250A128A1183120313B7009B
:1000B8003708B900012ABA01BA0A262AA201A301FF
:1000C8002630B7003708A4000A128A11A3260A129C
:1000D8008A11D030F4000730F5000A128A118927F6
:1000E8000A128A110A128A11F7270A128A110A308B
:1000F80083120313B7003708BA00262AA201A30106
:100108005930B7003708A4000A128A11A3260A1228
:100118008A11D030F4000730F5000A128A118927B5
:100128000A128A110A128A11F7270A128A110F3045
:1001380083120313B7003708BA00262AA201A301C5
:100148008C30B7003708A4000A128A11A3260A12B5
:100158008A1183120313A201A20AA3010130B70076
:100168003708A4000A128A11A3260A128A113B3002
:100178000A128A11C2230A128A1183120313AB01CD
:10018800AB0A0630B7003708AC003C08AE003B08A5
:10019800AD000430B8003808AF000A128A113122C5
:1001A8000A128A11103083120313B7003708BA00F5
:1001B800262AAB01AB0A0630B7003708AC003C086A
:1001C800AE003B08AD000430B8003808AF000A1292
:1001D8008A1131220A128A11831203133C08803AC9
:1001E800FF0080307F02031DFB2865303B02031CA3
:1001F800FE28FF2826290A128A11F7270A128A11CF
:1002080083120313A201A3011530B7003708A40015
:100218000A128A11A3260A128A1183120313A20151
:10022800A20AA3016A30B7003708A4000A128A118B
:10023800A3260A128A11113083120313B700370854
:10024800BA002629831203133C08803AFF00803045
:100258007F02031D312914303B0203183429352944
:100268005C290A128A11F7270A128A1183120313CA
:10027800A201A3011530B7003708A4000A128A1199
:10028800A3260A128A1183120313A201A20AA30148
:100298007B30B7003708A4000A128A11A3260A1275
:1002A8008A11123083120313B7003708BA005C2989
:1002B8003130831203133906031D63296429702919
:1002C8000A128A11F7270A128A11143083120313AB
:1002D800B7003708BA00702943303906031D75295D
:1002E8007629262A0A128A11F7270A128A116430F7
:1002F80083120313B7003708BA00262A262A3B3090
:100308000A128A11C2230A128A11831203133C08A3
:10031800803AFF0080307F02031D942964303B023D
:10032800031897299829262A0A128A11F7270A12E8
:100338008A110F3083120313B7003708BA00262A30
:10034800262A3B300A128A11C2230A128A11831202
:1003580003133C08803AFF0080307F02031DB62952
:1003680015303B02031CB929BA29262A0A128A1118
:10037800F7270A128A110F3083120313B7003708C0
:10038800BA00262A262AA201A3013730B700370867
:10039800A4000A128A11A3260A128A112A3083128B
:1003A80003133906031DD929DA29262A0A128A11C4
:1003B800F7270A128A110F3083120313B700370880
:1003C800BA00262A262AA201A3014830B700370816
:1003D800A4000A128A11A3260A128A112A3083124B
:1003E80003133906031DF929FA29262A0F30B70005
:1003F8003708BA00262A262A262A3A08B700B8015A
:100408003808003A0319092A262A3708003A031936
:100418005F28013A031962280B3A03198228053A22
:100428000319A2281F3A0319DD28013A0319832961
:10043800033A0319A529063A0319C729703A03197B
:10044800E729262A3B300A128A11C2230A128A1186
:10045800542854280A128A110C2883120313AE1B3D
:10046800362A382A0130392A0030B0003008B40062
:1004780034080319402A412A472AAD09AE09AD0AB2
:100488000319AE0A472A2C08B0003008F7002B08D9
:100498000A128A11A0270A128A1110308312031334
:1004A800B5002730B6000530B0003008B3008B2AFD
:1004B800831203133608A3003508A2002E08A500EE
:1004C8002D08A4000A128A11E0240A128A11831244
:1004D800031322082304031D722A732AA52A013054
:1004E800B302772AA52A0A30A2000030A3003608F2
:1004F800A5003508A4000A128A11E0240A128A11FC
:10050800831203132308B6002208B5008B2A360885
:10051800803AFF0080307F02031D942A01303502A3
:100528000318972A982A5C2AA52AA52A20300A1295
:100538008A11D5260A128A11013083120313AF02D9
:10054800A52A8312031333083407B000B101B10D93
:100558003108803AB20080303202031DB52A2F08D4
:1005680030020318B82AB92AC32A023083120313A7
:100578002F020318C02AC12A9A2AC32AC32A83121F
:10058800031334080319C92ACA2AD12A2D300A129A
:100598008A11D5260A128A11D12A83120313360822
:1005A800A3003508A2002E08A5002D08A4000A12F1
:1005B8008A11E0240A128A11831203132208303E9A
:1005C8000A128A11D5260A128A11831203133608D1
:1005D800F5003508F4002E08F7002D08F6000A1279
:1005E8008A1153250A128A11750883120313AE0063
:1005F8007408AD000A30A2000030A3003608A50038
:100608003508A4000A128A11E0240A128A118312FA
:1006180003132308B6002208B5003608803AFF0005
:1006280080307F02031D1A2B0130350203181D2B61
:100638001E2BD12A1F2B080003308A000408840AC5
:1006480082070034543465346D3470343A342034BD
:1006580020342034203420344334203420342034CF
:100668002034203420342034203400342034203402
:1006780020342034203441344C34453452345434FA
:1006880041342034203420342034203400342034C1
:10069800203420342034573445344C3443344F34D8
:1006A8004D34453420342034203420342034003470
:1006B80020342034203449346E3473347434613433
:1006C8006C346134633461346F3420342034203422
:1006D80000342034203420344D3461346E34753481
:1006E800743465346E34633461346F3420342034A8
:1006F80020340034203454346534523474346F3424
:1007080053342034503472344F346A3445346334AB
:10071800543420340034543445344D345034453442
:1007280052344134543455345234413420344134F1
:100738004C34543441340034543445344D345034FA
:1007480045345234413454345534523441342034CD
:100758004234413449345834003431343A34493419
:100768006E347334743420342034203443343A34AF
:100778004D3461346E347534743400348312031389
:10078800B4000A128A15FA270A128A117408831209
:100798000313B0007508B100B201B3015A09AC00E7
:1007A8005B09AD00AC0A0319AD0A58082C07A00074
:1007B80059080318590A2D07A100A201A11BA20379
:1007C8002208A3003308A7003208A6003108A500B4
:1007D8003008A4000A128A1116260A128A118312F6
:1007E80003132308B3002208B2002108B10020082F
:1007F800B0000A30AC00330DB30CB20CB10CB00C25
:10080800AC0BFF2B30085A07AC0031080318310A2B
:100818005B07AD00340884002C0883138000840A29
:100828002D0880000530A2000030A30034088400A1
:100838000008F400840A0008F5000930F6000030CA
:10084800F7000A128A1104270A128A1175088312FE
:100858000313A5007408A4000A128A11E0240A12DE
:100868008A11831203132208203EAC0023080318C0
:10087800013E003EAD003408043E84002C0883137A
:100888008000840A2D088000340884000008AC0029
:10089800840A0008AD002C08113EAE002D0803188C
:1008A800013E013EAF003408023E84002E0880005D
:1008B800840A2F0880000800F60083120313081129
:1008C8007608F40004300310F40CFF3E031D672C77
:1008D8007408F500F50E080875060F3975068800C6
:1008E800881176030319792C7A2C812C023076062C
:1008F800031D7F2C802C8B2C812C0330F500973026
:10090800F400F40B852CF50B852C8A2C902C0D30DB
:10091800F400F40B8D2C902C831203138815F030FF
:100928007605F40020307406031D9B2C9C2CB62CF5
:1009380008117608F40004300310F40CFF3E031D80
:10094800A02C7408F500F50E080875060F39750611
:10095800880088110D30F400F40BB02C83120313B7
:100968008815B62C081176080F39F400F40E08081B
:1009780074060F3974068800881176030319C52C8C
:10098800C62CCD2C02307606031DCB2CCC2CD72CB4
:10099800CD2C0330F5009730F400F40BD12CF50B77
:1009A800D12CD62CDC2C0D30F400F40BD92CDC2CFB
:1009B800831203138815080083120313A801A31FC9
:1009C800E62CE72CEF2CA209A309A20A0319A30A13
:1009D800A801A80AEF2CA51FF22CF32CFD2CA409C2
:1009E800A509A40A0319A50A0130A6002608A80625
:1009F800FD2CA901AA01220823040319042D052DA1
:100A0800422DA701A70A142D01300310A20DA30D32
:100A1800FF3E031D092D0130A6002608A707142D47
:100A2800A31F172D182D082D1A2D1A2D013003106C
:100A3800A90DAA0DFF3E031D1B2D23082502031D2A
:100A4800272D22082402031C2A2D2B2D332D2208A2
:100A5800A4022308031CA503A5022914332D013081
:100A68000310A30CA20CFF3E031D342D0130A70276
:100A7800031D3F2D402D1A2D422D422D2808031904
:100A8800462D472D4D2DA909AA09A90A0319AA0A15
:100A98004D2D2A08A3002908A200522D0800831210
:100AA8000313A201F71F592D5A2D622DF609F709D4
:100AB800F60A0319F70AA201A20A622DF51F652D8D
:100AC800662D6C2DF409F509F40A0319F50A6C2D45
:100AD800740875040319712D722DA72DA101A10A9F
:100AE800812D01300310F40DF50DFF3E031D762D09
:100AF8000130A0002008A107812DF51F842D852D28
:100B0800752D872D872D75087702031D8D2D740887
:100B18007602031C902D912D982D7408F602750805
:100B2800031CF703F702982D01300310F50CF40CA1
:100B3800FF3E031D992D0130A102031DA42DA52DF3
:100B4800872DA72DA72D22080319AB2DAC2DB22D6B
:100B5800F609F709F60A0319F70AB22D7708F5001E
:100B68007608F400B72D080083120313A001A20130
:100B780004302202031CC12DC22DC42D132E132EA6
:100B88000130F400220ACA2D0310F40DFF3E031DA4
:100B9800C82D74088600A10104302102031CD52D3C
:100BA800D62DD82D082E082E1030F400210ADE2D5F
:100BB8000310F40DFF3E031DDC2D74080605031910
:100BC800E62DE72DFD2D2208F40002300310F40D68
:100BD800FF3E031DEA2D41307407F5002108750713
:100BE800F6007608840083130008F7007708A00051
:100BF800FD2D0130F4007408A10704302102031C04
:100C0800062E072ED82D082E0130F4007408A207EE
:100C180004302202031C112E122EC42D132E20087C
:100C2800152E0800003083120313AB000030AA0011
:100C38000030A9000030A800212E201C242E252ECB
:100C48003D2E2408A807250803110318013E03199F
:100C58002E2EA907260803110318013E0319352E65
:100C6800AA07270803110318013E03193C2EAB07F6
:100C78003D2E0130F4000310A40DA50DA60DA70DFF
:100C8800F40B3F2E01300310A30CA20CA10CA00CF6
:100C9800FF3E031D472E2308220421042004031DC0
:100CA800562E572E212E582E2B08A3002A08A200B4
:100CB8002908A1002808A000612E08006430F4006B
:100CC8000030F5000A128A1189270A128A11831640
:100CD80003130814881408118811081288120813BD
:100CE80088136430F4000030F5000A128A1189274D
:100CF8000A128A1183120313881528300A128A11DE
:100D080060240A128A110C300A128A1160240A120D
:100D18008A1101300A128A1160240A128A110230DB
:100D28000A128A1160240A128A116430F400003011
:100D3800F5000A128A1189270A128A1108008312FB
:100D480003132308A5002508F70022080A128A11B0
:100D5800A0270A128A11C52E8312031324088400BF
:100D68000A128A1120230A128A110A128A11D52618
:100D78000A128A11013083120313A5002508A4075B
:100D8800C52E83120313240884000A128A11202313
:100D98000A128A11003A031DD22ED32EB02ED42E59
:100DA8000800F6008312031308157608F4000430CF
:100DB8000310F40CFF3E031DDC2E7408F500F50E3D
:100DC800080875060F397506880088110D30F4007B
:100DD800F40BEC2E831203138815081576080F39C7
:100DE800F400F40E080874060F3974068800881198
:100DF8000D30F400F40BFE2E83120313881508003F
:100E080083120313A001A101092F741C0C2F0D2FAD
:100E1800152F760883120313A0070318A10A770871
:100E2800A10701300310F60DF70DFF3E031D162F25
:100E380001300310F50CF40CFF3E031D1D2F740840
:100E48007504031D282F292F092F2A2F8312031316
:100E58002108F5002008F400312F08008B138316B1
:100E680003170814831203131F083F3980389F00A3
:100E7800831603131F129F12C330831203139F0597
:100E8800831603139F17831203131F140B1783165C
:100E980003130C178B17831203139F140800831274
:100EA80003131E08F000F1017008F8007108F9003A
:100EB80008300310F80DF90DFF3E031D5D2F831652
:100EC80003131E08F000F1017008F8070318F90A67
:100ED8007108F907831203139F1408003134323460
:100EE8003334413434343534363442343734383496
:100EF800393443342A343034233444340734003406
:100F080001340A34043400340034982F0130F402D8
:100F18000030031CF503F502C730F600932FF60BDB
:100F2800922F962F972F982F74087504031D9D2FC5
:100F38009E2F8A2F9F2F080083120313A1002108D8
:100F4800A00006300310A00DFF3E031DA62F770852
:100F580020077F39803E0A128A1160240A128A11FA
:100F68000800831203130C1FBA2FBB2FC22F0C13B8
:100F78000A128A1153270A128A11C22F73088A008B
:100F8800720E8300FE0E7E0E09007E088A007F081E
:100F980082000A128A11C9270A128A118000840A5B
:100FA80004087D0603190034FF0A0319FE0ACD2F31
:100FB8000A128A1132270A128A117508831203133A
:100FC800DB007408DA007708D9007608D800080032
:100FD800831603178901F0308316031386008312E2
:100FE80003138601080001300A128A1160240A12CC
:040FF8008A11080052
:0C1FF4007908F5007808F400FF2F0800C1
:04400E00D4E0FFFFFC
:00000001FF
